:100000000C942A000C9447000C9447000C94470071
:100010000C9447000C9447000C9447000C94470044
:100020000C9447000C9447000C9447000C94E40097
:100030000C9447000C9447000C9447000C94470024
:100040000C9447000C9447000C9447000C94470014
:100050000C94470011241FBECFE5D4E0DEBFCDBF16
:1000600010E0A0E6B0E0E0E3FDE102C005900D92F3
:10007000AE36B107D9F710E0AEE6B0E001C01D9290
:10008000AF3AB107E1F70E9440030C94960E0C942E
:100090000000DF93CF93CDB7DEB7A7E3B0E0E7E38F
:1000A000F0E08081886B8C93A7E3B0E0E7E3F0E0B9
:1000B00080818B7B8C93ADE2B0E0EDE2F0E080815B
:1000C00080658C93A8E3B0E0E8E3F0E08081816094
:1000D0008C93A8E3B0E0E8E3F0E080818D7F8C931F
:1000E000CF91DF910895DF93CF9300D0CDB7DEB7E6
:1000F0008A83EFE2F0E08A818083EEE2F0E08081A3
:100100008823DCF7EFE2F0E08081898389810F901A
:100110000F90CF91DF910895DF93CF9300D0CDB7AB
:10012000DEB79A838983A1E3B0E0E1E3F0E0808168
:1001300082608C93A1E3B0E0E1E3F0E080818E7F08
:100140008C93A2E3B0E0E2E3F0E0808183608C93E3
:10015000E0E4F0E089819A81892F99278083E9E2A0
:10016000F0E089818083AAE2B0E0EAE2F0E08081F9
:1001700088618C93A0E4B0E0E0E4F0E080818668E0
:100180008C93AAE2B0E0EAE2F0E0808180688C9390
:100190000F900F90CF91DF910895DF93CF930F923F
:1001A000CDB7DEB78983EBE2F0E08081882F90E065
:1001B000807290700097B9F3ECE2F0E0898180835F
:1001C0000F90CF91DF9108951F920F920FB60F926B
:1001D00011242F933F934F935F936F937F938F934C
:1001E0009F93AF93BF93EF93FF93DF93CF930F92C0
:1001F000CDB7DEB71982ECE2F0E080818983898196
:100200000E94CD00898180936E000F90CF91DF9185
:10021000FF91EF91BF91AF919F918F917F916F91DE
:100220005F914F913F912F910F900FBE0F901F90B4
:100230001895DF93CF93CDB7DEB7A7E3B0E0E7E340
:10024000F0E08081886B8C93A7E3B0E0E7E3F0E017
:1002500080818B7B8C93A8E3B0E0E8E3F0E08081C1
:1002600080618C93CF91DF910895DF93CF93CDB7C9
:10027000DEB72E970FB6F894DEBF0FBECDBFA8E352
:10028000B0E0E8E3F0E0808188608C93A8E3B0E020
:10029000E8E3F0E080818F7E8C9380E20E9473001F
:1002A00082E10E947300A8E3B0E0E8E3F0E080811F
:1002B00080618C9380E090E0A0E8BFE38B879C870F
:1002C000AD87BE876B857C858D859E8520E030E07F
:1002D0004AE753E40E94DB0ADC01CB018F83988755
:1002E000A987BA876F81788589859A8520E030E073
:1002F00040E85FE30E94350C88232CF481E090E015
:100300009E838D833FC06F81788589859A8520E0A3
:100310003FEF4FE757E40E94D50B18164CF56B855D
:100320007C858D859E8520E030E040E251E40E948E
:10033000DB0ADC01CB01BC01CD010E940509DC0117
:10034000CB019E838D830FC089E190E09C838B83DA
:100350008B819C810197F1F79C838B838D819E819A
:1003600001979E838D838D819E81009769F714C0CC
:100370006F81788589859A850E940509DC01CB010A
:100380009E838D838D819E819A83898389819A81C1
:100390000197F1F79A8389832E960FB6F894DEBF02
:1003A0000FBECDBFCF91DF910895DF93CF93CDB72F
:1003B000DEB72E970FB6F894DEBF0FBECDBFA8E311
:1003C000B0E0E8E3F0E0808188608C93A8E3B0E0DF
:1003D000E8E3F0E080818F7E8C9380E20E947300DE
:1003E00083E10E947300A8E3B0E0E8E3F0E08081DD
:1003F00080618C9380E090E0A0E0B0E48B879C87E4
:10040000AD87BE876B857C858D859E8520E030E03D
:100410004AE753E40E94DB0ADC01CB018F83988713
:10042000A987BA876F81788589859A8520E030E031
:1004300040E85FE30E94350C88232CF481E090E0D3
:100440009E838D833FC06F81788589859A8520E062
:100450003FEF4FE757E40E94D50B18164CF56B851C
:100460007C858D859E8520E030E040E251E40E944D
:10047000DB0ADC01CB01BC01CD010E940509DC01D6
:10048000CB019E838D830FC089E190E09C838B8399
:100490008B819C810197F1F79C838B838D819E8159
:1004A00001979E838D838D819E81009769F714C08B
:1004B0006F81788589859A850E940509DC01CB01C9
:1004C0009E838D838D819E819A83898389819A8180
:1004D0000197F1F79A8389832E960FB6F894DEBFC1
:1004E0000FBECDBFCF91DF910895DF93CF93CDB7EE
:1004F000DEB7A8E3B0E0E8E3F0E08081877F8C938B
:10050000CF91DF910895DF93CF9300D0CDB7DEB7C1
:100510008A83A8E3B0E0E8E3F0E080818F7E8C93EB
:1005200081EE0E947300A8E3B0E0E8E3F0E0808190
:1005300080618C93A8E3B0E0E8E3F0E080818F7EF7
:100540008C9380EA0E94730019820CC08981882FE5
:1005500090E0FC01E159FF4F80810E947300898186
:100560008F5F898399818A81981780F3A8E3B0E02F
:10057000E8E3F0E0808180618C930F900F90CF9141
:10058000DF9108950F931F93DF93CF9300D0CDB7E2
:10059000DEB78A83A8E3B0E0E8E3F0E080818F7EF5
:1005A0008C9381E60E94730019820DC08981082F07
:1005B00010E08FEF0E947300F801E157FF4F808336
:1005C00089818F5F898399818A81981778F3A8E35D
:1005D000B0E0E8E3F0E0808180618C93A8E3B0E0D4
:1005E000E8E3F0E080818F7E8C9382EE0E947300BE
:1005F000A8E3B0E0E8E3F0E0808180618C930F90A5
:100600000F90CF91DF911F910F910895DF93CF93BA
:100610000F92CDB7DEB7A8E3B0E0E8E3F0E0808169
:100620008F7E8C9387E00E9473008983A8E3B0E0FB
:10063000E8E3F0E0808180618C9389810F90CF9115
:10064000DF910895DF93CF930F92CDB7DEB7898303
:10065000A8E3B0E0E8E3F0E080818F7E8C9387E24E
:100660000E94730089810E947300A8E3B0E0E8E370
:10067000F0E0808180618C930F90CF91DF9108959D
:100680000F931F93DF93CF93CDB7DEB7CC55D040F8
:100690000FB6F894DEBF0FBECDBF0E94490078941C
:1006A0000E9419010E94D501A8E3B0E0E8E3F0E060
:1006B00080818F7E8C9381E20E94730080E00E9493
:1006C0007300A8E3B0E0E8E3F0E0808180618C9300
:1006D000A8E3B0E0E8E3F0E080818F7E8C9381E3D3
:1006E0000E94730080E20E947300A8E3B0E0E8E398
:1006F000F0E0808180618C93FE01EF5AFF4F80E033
:1007000090E0A0E8BFE380839183A283B3838E014E
:10071000035B1F4FFE01EF5AFF4F608171818281A1
:10072000938120E030E04AE753E40E94DB0ADC01D9
:10073000CB01F80180839183A283B383FE01E35B45
:10074000FF4F608171818281938120E030E040E839
:100750005FE30E94350C882344F4FE01E55BFF4F04
:1007600081E090E09183808364C0FE01E35BFF4FF2
:10077000608171818281938120E03FEF4FE757E4F0
:100780000E94D50B18160CF043C0FE01EF5AFF4F24
:10079000608171818281938120E030E040E251E408
:1007A0000E94DB0ADC01CB018E01055B1F4FBC01FF
:1007B000CD010E940509DC01CB01F8019183808302
:1007C0001FC0FE01E75BFF4F89E190E091838083CA
:1007D000FE01E75BFF4F808191810197F1F7FE01F8
:1007E000E75BFF4F91838083DE01A55BBF4FFE0176
:1007F000E55BFF4F80819181019711969C938E93C9
:10080000FE01E55BFF4F808191810097D1F627C003
:100810008E01055B1F4FFE01E35BFF4F608171811D
:10082000828193810E940509DC01CB01F80191834B
:100830008083DE01A95BBF4FFE01E55BFF4F808136
:1008400091818D939C93FE01E95BFF4F80819181A3
:100850000197F1F7FE01E95BFF4F918380830E94CE
:100860003501FE01E65AFF4F11821082FE01E75A60
:10087000FF4F1082FE01E85AFF4F108280E00E9475
:100880009D07982F8FE0692F0E947A086D961FAE02
:100890006D97FE01E65AFF4F80819181FEE481321F
:1008A0009F0720F021E06D962FAF6D97DE01A65ACD
:1008B000BF4FFE01E65AFF4F80819181019611964C
:1008C0009C938E936D968FAD6D97882309F4C0C06D
:1008D000FE01E65AFF4F11821082FE01E75AFF4FD8
:1008E000808180936F00FE01E95AFF4F81E0808391
:1008F00017C0FE01E95AFF4F8081882F90E0DC018C
:10090000A159BF4FFE01E95AFF4F80818C93DE0150
:10091000A95ABF4FFE01E95AFF4F80818F5F8C9328
:10092000FE01E95AFF4F8081803218F380E20E9475
:1009300083020E94350181E00E949D07982F8FE07D
:10094000692F0E947A08FE01ED5BFF4F80E090E086
:10095000AAE7B4E480839183A283B3838E01015C10
:100960001F4FFE01ED5BFF4F60817181828193819A
:1009700020E030E04AE753E40E94DB0ADC01CB01CF
:10098000F80180839183A283B383FE01FF96608187
:1009900071818281938120E030E040E85FE30E9432
:1009A000350C88232CF481E090E09EAF8DAF46C0DB
:1009B000FE01FF96608171818281938120E03FEF8B
:1009C0004FE757E40E94D50B181664F5FE01ED5B66
:1009D000FF4F608171818281938120E030E040E2AD
:1009E00051E40E94DB0ADC01CB01BC01CD010E9475
:1009F0000509DC01CB019EAF8DAF0FC089E190E00E
:100A00009CAF8BAF8BAD9CAD0197F1F79CAF8BAFDB
:100A10008DAD9EAD01979EAF8DAF8DAD9EAD009714
:100A200069F716C0FE01FF96608171818281938112
:100A30000E940509DC01CB019EAF8DAF8DAD9EAD4F
:100A40009AAF89AF89AD9AAD0197F1F79AAF89AFA7
:100A5000E6E3F0E08081882F90E08470907000974A
:100A600009F00CCF82E00E949D07982F8FE0692F3C
:100A70000E947A0880E090E0AAE7B4E48DAB9EABD8
:100A8000AFABB8AF6DA97EA98FA998AD20E030E0DB
:100A90004AE753E40E94DB0ADC01CB0189AB9AAB45
:100AA000ABABBCAB69A97AA98BA99CA920E030E0CB
:100AB00040E85FE30E94350C88232CF481E090E04D
:100AC00098AB8FA73FC069A97AA98BA99CA920E000
:100AD0003FEF4FE757E40E94D50B18164CF56DA970
:100AE0007EA98FA998AD20E030E040E251E40E9459
:100AF000DB0ADC01CB01BC01CD010E940509DC0150
:100B0000CB0198AB8FA70FC089E190E09EA78DA77E
:100B10008DA59EA50197F1F79EA78DA78FA598A9F2
:100B2000019798AB8FA78FA598A9009769F714C074
:100B300069A97AA98BA99CA90E940509DC01CB01AE
:100B400098AB8FA78FA598A99CA78BA78BA59CA5D1
:100B50000197F1F79CA78BA70E940603FE01EA5AB2
:100B6000FF4F8083FE01EA5AFF4F8081882F90E07B
:100B700080749070009709F455C183E00E949D072E
:100B8000982F8FE0692F0E947A0880E090E0A8E417
:100B9000B3E48FA398A7A9A7BAA76FA178A589A541
:100BA0009AA520E030E04AE753E40E94DB0ADC012A
:100BB000CB018BA39CA3ADA3BEA36BA17CA18DA1F4
:100BC0009EA120E030E040E85FE30E94350C8823DE
:100BD0002CF481E090E09AA389A33FC06BA17CA193
:100BE0008DA19EA120E03FEF4FE757E40E94D50B77
:100BF00018164CF56FA178A589A59AA520E030E0DC
:100C000040E251E40E94DB0ADC01CB01BC01CD01D2
:100C10000E940509DC01CB019AA389A30FC089E1D9
:100C200090E098A38F8F8F8D98A10197F1F798A3EB
:100C30008F8F89A19AA101979AA389A389A19AA1CB
:100C4000009769F714C06BA17CA18DA19EA10E94A1
:100C50000509DC01CB019AA389A389A19AA19E8FE2
:100C60008D8F8D8D9E8D0197F1F79E8F8D8F80E4F6
:100C70000E94220380E20E94C20280E090E0A0E88D
:100C8000BFE3898F9A8FAB8FBC8F698D7A8D8B8DE7
:100C90009C8D20E030E04AE753E40E94DB0ADC014F
:100CA000CB018D8B9E8BAF8BB88F6D897E898F89A1
:100CB000988D20E030E040E85FE30E94350C882307
:100CC0002CF481E090E09C8B8B8B3FC06D897E89FA
:100CD0008F89988D20E03FEF4FE757E40E94D50BB6
:100CE00018164CF5698D7A8D8B8D9C8D20E030E047
:100CF00040E251E40E94DB0ADC01CB01BC01CD01E2
:100D00000E940509DC01CB019C8B8B8B0FC089E114
:100D100090E09A8B898B89899A890197F1F79A8B50
:100D2000898B8B899C8901979C8B8B8B8B899C8968
:100D3000009769F714C06D897E898F89988D0E940C
:100D40000509DC01CB019C8B8B8B8B899C89988B53
:100D50008F878F8598890197F1F7988B8F87FE0190
:100D6000EB5AFF4F108215C0FE01EB5AFF4F8081F6
:100D7000882F90E0FC01E157FF4F80810E94CD0059
:100D8000DE01AB5ABF4FFE01EB5AFF4F80818F5FF0
:100D90008C93FE01EB5AFF4F8081803228F38091C3
:100DA0008F00FE01E75AFF4F90818917B9F5DE01E8
:100DB000A85ABF4FFE01E85AFF4F80818F5F8C9386
:100DC000FE01EB5AFF4F81E0808322C0FE01EB5A07
:100DD000FF4F8081882F90E0FC01E157FF4F908109
:100DE000FE01EB5AFF4F8081981749F4DE01A85AA3
:100DF000BF4FFE01E85AFF4F80818F5F8C93DE0169
:100E0000AB5ABF4FFE01EB5AFF4F80818F5F8C932F
:100E1000FE01EB5AFF4F80818032C0F2FE01E85A9A
:100E2000FF4F1082FE01EA5AFF4F8081882F90E029
:100E300080729070009709F421CD84E00E949D0794
:100E4000982F8FE0692F0E947A0880E090E0A8E454
:100E5000B3E48B879C87AD87BE876B857C858D854A
:100E60009E8520E030E04AE753E40E94DB0ADC0183
:100E7000CB018F839887A987BA876F817885898509
:100E80009A8520E030E040E85FE30E94350C88233B
:100E90002CF481E090E09E838D833FC06F81788544
:100EA00089859A8520E03FEF4FE757E40E94D50BF4
:100EB00018164CF56B857C858D859E8520E030E08D
:100EC00040E251E40E94DB0ADC01CB01BC01CD0110
:100ED0000E940509DC01CB019E838D830FC089E14F
:100EE00090E09C838B838B819C810197F1F79C839D
:100EF0008B838D819E8101979E838D838D819E81C1
:100F0000009769F714C06F81788589859A850E945A
:100F10000509DC01CB019E838D838D819E819A839F
:100F2000898389819A810197F1F79A83898380E285
:100F30000E9422030E94D501A1CCDF93CF9300D061
:100F400000D0CDB7DEB78A838A81282F30E03C837A
:100F50002B838B819C818930910509F4A3C02B815F
:100F60003C812A3031050CF042C08B819C81843059
:100F7000910509F488C02B813C8125303105F4F4BA
:100F80008B819C818130910509F474C02B813C8157
:100F90002230310534F48B819C81009709F467C0BD
:100FA0009FC02B813C812230310509F466C08B81C2
:100FB0009C818330910509F463C092C02B813C81F0
:100FC0002630310509F465C08B819C8186309105FE
:100FD0000CF45CC02B813C812730310509F45CC0E6
:100FE0008B819C818830910509F459C079C02B818F
:100FF0003C812E30310509F464C08B819C818F3097
:101000009105CCF42B813C812B30310509F450C083
:101010008B819C818B3091050CF447C02B813C81E6
:101020002C30310509F447C08B819C818D309105AE
:1010300009F444C055C02B813C812032310509F4AC
:101040004CC08B819C818132910534F42B813C8191
:101050002F303105C9F144C08B819C818D329105BF
:10106000B1F12B813C812F353105A1F139C080ECE4
:10107000898338C089EF898335C084EA898332C087
:1010800080EB89832FC089E989832CC082E9898319
:1010900029C082E8898326C088EF898323C080E83D
:1010A000898320C080E989831DC088E889831AC0AC
:1010B00083E8898317C086EC898314C081EA898319
:1010C00011C086E889830EC08EE889830BC08FED3E
:1010D000898308C087EF898305C08FEF898302C0A9
:1010E0008FEF898389810F900F900F900F90CF9190
:1010F000DF910895DF93CF9300D000D000D0CDB71B
:10110000DEB78D836E83EAE3F0E08FEF8083ABE39D
:10111000B0E0EBE3F0E0808180688C931C821B825E
:1011200028C08D81882344F0ABE3B0E0EBE3F0E02E
:1011300080818F7D8C9307C0ABE3B0E0EBE3F0E000
:10114000808180628C93ABE3B0E0EBE3F0E08081E0
:101150008F7B8C93ABE3B0E0EBE3F0E080818064C5
:101160008C938D81880F8D838B819C8101969C83CC
:101170008B838B819C81883091059CF21A82198225
:1011800028C08E81882344F0ABE3B0E0EBE3F0E0CD
:1011900080818F7D8C9307C0ABE3B0E0EBE3F0E0A0
:1011A000808180628C93ABE3B0E0EBE3F0E0808180
:1011B0008F7B8C93ABE3B0E0EBE3F0E08081806465
:1011C0008C938E81880F8E8389819A8101969A8370
:1011D000898389819A81883091059CF2ABE3B0E0E4
:1011E000EBE3F0E080818F778C93ABE3B0E0EBE34F
:1011F000F0E0808180688C9326960FB6F894DEBF6D
:101200000FBECDBFCF91DF910895EF92FF920F9364
:101210001F937B018C0120E030E040E05FE40E94FE
:10122000050C88238CF0C801B70120E030E040E0D5
:101230005FE40E947D0A0E94650C9B01AC01205076
:1012400030404040504806C0C801B7010E94650CBC
:101250009B01AC01B901CA011F910F91FF90EF9062
:101260000895A0E0B0E0E7E3F9E00C945F0EDC0144
:101270002B01FA019C91923008F439C1EB0188816D
:10128000823008F433C1943069F4843009F02FC1FE
:1012900011969C9111978981981709F428C1A5E6A8
:1012A000B0E025C1843009F421C18230A9F4923024
:1012B00009F01DC19A01AD0188E0EA010990AE0173
:1012C000E90109929E018150C1F7E20189811196DD
:1012D0009C918923818308C1923009F407C1129639
:1012E0002D903C901397EB018A819B811496AD90D1
:1012F000BD90CD90DC901797EC80FD800E811F8112
:101300009101281B390BB90137FF04C066277727E5
:10131000621B730B603271050CF061C0121613066C
:101320006CF537014801062E04C096948794779493
:1013300067940A94D2F721E030E040E050E004C026
:10134000220F331F441F551F6A95D2F7215030409A
:10135000404050402E213F2140235123211531058B
:101360004105510521F021E030E040E050E07901F5
:101370008A01E628F728082919293CC0232BD1F136
:10138000260E371E35014601062E04C0969487941A
:10139000779467940A94D2F721E030E040E050E07F
:1013A00004C0220F331F441F551F6A95D2F72150E6
:1013B0003040404050402A213B214C215D212115E5
:1013C00031054105510521F021E030E040E050E0D9
:1013D00059016A01A628B728C828D9280BC0821548
:1013E00093052CF01C01AA24BB24650103C0EE2444
:1013F000FF24870111969C91D20111968C91981728
:1014000009F445C0992339F0A80197012A193B092D
:101410004C095D0906C0A60195012E193F09400B34
:10142000510B57FD08C011823382228224833583F9
:10143000468357831DC081E08183338222828827BF
:101440009927DC01821B930BA40BB50B8483958336
:10145000A683B7830DC0220F331F441F551F24835B
:101460003583468357838281938101979383828357
:101470002481358146815781DA01C9010197A1098B
:10148000B1098F5F9F4FAF4FBF4328F30BC09183CC
:1014900033822282EA0CFB1C0C1D1D1DE482F582A6
:1014A0000683178383E080832481358146815781B9
:1014B00057FF1AC0C901AA2797FDA095BA2F8170BE
:1014C0009070A070B0705695479537952795822BF0
:1014D000932BA42BB52B84839583A683B78382811A
:1014E0009381019693838283DF0101C0D201CD01F4
:1014F000CDB7DEB7E2E10C947B0EA0E2B0E0E3E80A
:10150000FAE00C946B0E69837A838B839C832D8322
:101510003E834F835887E9E0EE2EF12CEC0EFD1E42
:10152000CE010196B7010E948E0D8E010F5E1F4FF6
:10153000CE010596B8010E948E0D8A8991E0892717
:101540008A8BC701B801AE01475E5F4F0E94310927
:101550000E94B90CA096E6E00C94870EA0E2B0E0E1
:10156000E4EBFAE00C946B0E69837A838B839C83A3
:101570002D833E834F835887F9E0EF2EF12CEC0E3C
:10158000FD1ECE010196B7010E948E0D8E010F5EE9
:101590001F4FCE010596B8010E948E0DC701B801FC
:1015A000AE01475E5F4F0E9431090E94B90CA096C0
:1015B000E6E00C94870EA0E2B0E0E1EEFAE00C94D5
:1015C0005F0E69837A838B839C832D833E834F8355
:1015D0005887CE010196BE01675F7F4F0E948E0D36
:1015E000CE010596BE016F5E7F4F0E948E0D9985DC
:1015F000923088F089898230C8F0943019F48230B2
:1016000051F404C0843029F4923081F485E690E0EE
:10161000C6C0923049F420E09A858A89981321E067
:101620002A87CE010996BBC0823049F420E09A8512
:101630008A89981321E02A8BCE014196B0C02D846F
:101640003E844F8458886D887E888F88988CEE24DD
:10165000FF248701AA24BB24650140E050E060E03C
:1016600070E0E0E0F0E0C10181709070892BE9F05A
:10167000E60CF71C081D191D9A01AB012A0D3B1D34
:101680004C1D5D1D80E090E0A0E0B0E0E614F704A2
:101690000805190520F481E090E0A0E0B0E0BA016F
:1016A000A901480F591F6A1F7B1FAA0CBB1CCC1C29
:1016B000DD1C97FE08C081E090E0A0E0B0E0A82A21
:1016C000B92ACA2ADB2A3196E032F10549F0660CC4
:1016D000771C881C991C5694479437942794C3CF41
:1016E000FA85EA892B893C898B859C85280F391FCF
:1016F0002E5F3F4F17C0CA0181709070892B61F037
:1017000016950795F794E79480E090E0A0E0B0E8A4
:10171000E82AF92A0A2B1B2B76956795579547954A
:101720002F5F3F4F77FDE7CF0CC0440F551F661F5B
:10173000771F17FD4160EE0CFF1C001F111F215089
:101740003040403090E0590790E0690790E4790715
:1017500060F32B8F3C8FDB01CA018F779070A070F4
:10176000B07080349105A105B10561F447FD0AC050
:10177000E114F1040105110529F0405C5F4F6F4F42
:101780007F4F40781A8EFE1711F081E08A8F4D8FBF
:101790005E8F6F8F78A383E0898FCE0149960E9478
:1017A000B90CA096E2E10C947B0EA8E1B0E0EBED61
:1017B000FBE00C946B0E69837A838B839C832D836F
:1017C0003E834F83588789E0E82EF12CEC0EFD1EF6
:1017D000CE010196B7010E948E0D8E010F5E1F4F44
:1017E000CE010596B8010E948E0D8985823040F0A9
:1017F0008989823028F0C701B8010E94060E01C015
:101800008FEF6896E6E00C94870EA8E1B0E0EBE07D
:10181000FCE00C946B0E69837A838B839C832D830D
:101820003E834F83588789E0E82EF12CEC0EFD1E95
:10183000CE010196B7010E948E0D8E010F5E1F4FE3
:10184000CE010596B8010E948E0D8985823040F048
:101850008989823028F0C701B8010E94060E01C0B4
:101860008FEF6896E6E00C94870EA8E1B0E0EBE31A
:10187000FCE00C946B0E69837A838B839C832D83AD
:101880003E834F83588789E0E82EF12CEC0EFD1E35
:10189000CE010196B7010E948E0D8E010F5E1F4F83
:1018A000CE010596B8010E948E0D8985823040F0E8
:1018B0008989823028F0C701B8010E94060E01C054
:1018C00081E06896E6E00C94870EACE0B0E0EBE6D1
:1018D000FCE00C946F0E69837A838B839C83CE012A
:1018E0000196BE016B5F7F4F0E948E0D8D8182300D
:1018F00061F1823050F1843021F48E81882351F1DE
:101900002EC02F81388537FD20C06E812F313105E3
:101910001CF06623F9F023C08EE190E0821B930B4C
:1019200029853A854B855C8504C056954795379542
:1019300027958A95D2F76623B1F05095409530955A
:1019400021953F4F4F4F5F4F0EC020E030E040E009
:1019500050E009C02FEF3FEF4FEF5FE704C020E0FA
:1019600030E040E050E8B901CA012C96E2E00C9466
:101970008B0EDF92EF92FF920F931F93FC01E48096
:10198000F58006811781D1808081823048F480E023
:1019900090E0A0E1B0E0E82AF92A0A2B1B2BA5C0B1
:1019A000843009F49FC0823021F4EE24FF248701A3
:1019B00005C0E114F1040105110519F4E0E0F0E0BF
:1019C00096C0628173819FEF623879070CF05BC02B
:1019D00022E83FEF261B370B2A3131052CF020E09F
:1019E00030E040E050E02AC0B801A701022E04C058
:1019F00076956795579547950A94D2F781E090E0E0
:101A0000A0E0B0E004C0880F991FAA1FBB1F2A9551
:101A1000D2F70197A109B1098E219F21A023B123FB
:101A20000097A105B10521F081E090E0A0E0B0E0D1
:101A30009A01AB01282B392B4A2B5B2BDA01C90108
:101A40008F779070A070B07080349105A105B105BA
:101A500039F427FF09C0205C3F4F4F4F5F4F04C050
:101A6000215C3F4F4F4F5F4FE0E0F0E02030A0E0BF
:101A70003A07A0E04A07A0E45A0710F0E1E0F0E0DE
:101A800079018A0127C06038710564F5FB01E158CE
:101A9000FF4FD801C7018F779070A070B07080346D
:101AA0009105A105B10539F4E7FE0DC080E490E091
:101AB000A0E0B0E004C08FE390E0A0E0B0E0E80E6A
:101AC000F91E0A1F1B1F17FF05C016950795F794EF
:101AD000E794319687E016950795F794E7948A95F1
:101AE000D1F705C0EE24FF248701EFEFF0E06E2F61
:101AF000679566276795902F9F77D794DD24D794B5
:101B00008E2F8695492F462B582F5D29B701CA0184
:101B10001F910F91FF90EF90DF900895FC01DB0182
:101B2000408151812281622F6F7770E0221F22272E
:101B3000221F9381892F880F822B282F30E0991F35
:101B40009927991F11969C93119721153105A9F595
:101B5000411551056105710511F482E037C082E835
:101B60009FEF13969C938E9312979A01AB0167E0B7
:101B7000220F331F441F551F6A95D1F783E08C93C2
:101B80000DC0220F331F441F551F12968D919C913B
:101B90001397019713969C938E931297203080E0B1
:101BA000380780E0480780E4580758F314962D93CF
:101BB0003D934D935C93179708952F3F310579F42A
:101BC000411551056105710519F484E08C93089560
:101BD00064FF03C081E08C9312C01C9210C02F5789
:101BE000304013963C932E93129783E08C9387E0BA
:101BF000440F551F661F771F8A95D1F7706414969E
:101C00004D935D936D937C93179708951F93DC011B
:101C1000FB019C91923008F447C08081823008F427
:101C200043C0943051F411961C91843099F5818110
:101C3000682F70E0611B71093FC0843021F0923041
:101C400031F48230B9F18181882389F12DC0119658
:101C50001C9111978230F1F081811817D9F41296F6
:101C60002D913C911397828193818217930794F071
:101C700028173907BCF014968D919D910D90BC9159
:101C8000A02D2481358146815781281739074A07BD
:101C90005B0718F4112341F00AC082179307A407C9
:101CA000B50740F4112319F061E070E005C06FEF53
:101CB0007FEF02C060E070E0CB011F9108952F928A
:101CC0003F924F925F926F927F928F929F92AF92CC
:101CD000BF92CF92DF92EF92FF920F931F93CF9319
:101CE000DF93CDB7DEB7CA1BDB0B0FB6F894DEBFB0
:101CF0000FBECDBF09942A88398848885F846E84D6
:101D00007D848C849B84AA84B984C884DF80EE801F
:101D1000FD800C811B81AA81B981CE0FD11D0FB628
:101D2000F894DEBF0FBECDBFED010895F894FFCF4C
:0E1D3000E7E7E7E7E700000000000000000022
:00000001FF
